{
  "_format": "hh-sol-artifact-1",
  "contractName": "GameToken",
  "sourceName": "contracts/GameToken.sol",
  "abi": [
    {
      "inputs": [],
      "stateMutability": "nonpayable",
      "type": "constructor"
    },
    {
      "anonymous": false,
      "inputs": [
        {
          "indexed": true,
          "internalType": "address",
          "name": "owner",
          "type": "address"
        },
        {
          "indexed": false,
          "internalType": "uint256",
          "name": "amount",
          "type": "uint256"
        }
      ],
      "name": "FundsWithdrawn",
      "type": "event"
    },
    {
      "anonymous": false,
      "inputs": [
        {
          "indexed": true,
          "internalType": "address",
          "name": "buyer",
          "type": "address"
        },
        {
          "indexed": false,
          "internalType": "uint256",
          "name": "amount",
          "type": "uint256"
        },
        {
          "indexed": false,
          "internalType": "uint256",
          "name": "ethPaid",
          "type": "uint256"
        }
      ],
      "name": "TokensPurchased",
      "type": "event"
    },
    {
      "inputs": [],
      "name": "TOKEN_PRICE",
      "outputs": [
        {
          "internalType": "uint256",
          "name": "",
          "type": "uint256"
        }
      ],
      "stateMutability": "view",
      "type": "function"
    },
    {
      "inputs": [],
      "name": "getContractBalance",
      "outputs": [
        {
          "internalType": "uint256",
          "name": "",
          "type": "uint256"
        }
      ],
      "stateMutability": "view",
      "type": "function"
    },
    {
      "inputs": [
        {
          "internalType": "address",
          "name": "user",
          "type": "address"
        }
      ],
      "name": "getTokenBalance",
      "outputs": [
        {
          "internalType": "uint256",
          "name": "",
          "type": "uint256"
        }
      ],
      "stateMutability": "view",
      "type": "function"
    },
    {
      "inputs": [],
      "name": "owner",
      "outputs": [
        {
          "internalType": "address",
          "name": "",
          "type": "address"
        }
      ],
      "stateMutability": "view",
      "type": "function"
    },
    {
      "inputs": [
        {
          "internalType": "uint256",
          "name": "tokenAmount",
          "type": "uint256"
        }
      ],
      "name": "purchaseTokens",
      "outputs": [],
      "stateMutability": "payable",
      "type": "function"
    },
    {
      "inputs": [
        {
          "internalType": "address",
          "name": "",
          "type": "address"
        }
      ],
      "name": "tokenBalances",
      "outputs": [
        {
          "internalType": "uint256",
          "name": "",
          "type": "uint256"
        }
      ],
      "stateMutability": "view",
      "type": "function"
    },
    {
      "inputs": [],
      "name": "totalTokensPurchased",
      "outputs": [
        {
          "internalType": "uint256",
          "name": "",
          "type": "uint256"
        }
      ],
      "stateMutability": "view",
      "type": "function"
    },
    {
      "inputs": [
        {
          "internalType": "address",
          "name": "newOwner",
          "type": "address"
        }
      ],
      "name": "transferOwnership",
      "outputs": [],
      "stateMutability": "nonpayable",
      "type": "function"
    },
    {
      "inputs": [],
      "name": "withdrawFunds",
      "outputs": [],
      "stateMutability": "nonpayable",
      "type": "function"
    },
    {
      "stateMutability": "payable",
      "type": "receive"
    }
  ],
  "bytecode": "0x608060405234801561001057600080fd5b50600080546001600160a01b031916331790556106b6806100326000396000f3fe60806040526004361061008a5760003560e01c80637b97008d116100595780637b97008d146101365780638da5cb5b14610149578063a277d5b114610181578063d2d8cb6714610197578063f2fde38b146101b157600080fd5b806324600fc3146100965780633aecd0e3146100ad578063523fba7f146100f65780636f9fb98a1461012357600080fd5b3661009157005b600080fd5b3480156100a257600080fd5b506100ab6101d1565b005b3480156100b957600080fd5b506100e36100c836600461059d565b6001600160a01b031660009081526001602052604090205490565b6040519081526020015b60405180910390f35b34801561010257600080fd5b506100e361011136600461059d565b60016020526000908152604090205481565b34801561012f57600080fd5b50476100e3565b6100ab6101443660046105cd565b610326565b34801561015557600080fd5b50600054610169906001600160a01b031681565b6040516001600160a01b0390911681526020016100ed565b34801561018d57600080fd5b506100e360025481565b3480156101a357600080fd5b506100e3655af3107a400081565b3480156101bd57600080fd5b506100ab6101cc36600461059d565b6104fb565b6000546001600160a01b031633146102045760405162461bcd60e51b81526004016101fb906105e6565b60405180910390fd5b47806102495760405162461bcd60e51b81526020600482015260146024820152734e6f2066756e647320746f20776974686472617760601b60448201526064016101fb565b600080546040516001600160a01b039091169083908381818185875af1925050503d8060008114610296576040519150601f19603f3d011682016040523d82523d6000602084013e61029b565b606091505b50509050806102e05760405162461bcd60e51b815260206004820152601160248201527015da5d1a191c985dd85b0819985a5b1959607a1b60448201526064016101fb565b6000546040518381526001600160a01b03909116907feaff4b37086828766ad3268786972c0cd24259d4c87a80f9d3963a3c3d999b0d9060200160405180910390a25050565b600081116103825760405162461bcd60e51b815260206004820152602360248201527f546f6b656e20616d6f756e74206d75737420626520677265617465722074686160448201526206e20360ec1b60648201526084016101fb565b6000610394655af3107a40008361063d565b9050803410156103de5760405162461bcd60e51b8152602060048201526015602482015274125b9cdd59999a58da595b9d08115512081cd95b9d605a1b60448201526064016101fb565b33600090815260016020526040812080548492906103fd90849061065a565b925050819055508160026000828254610416919061065a565b90915550506040805183815234602082015233917f8fafebcaf9d154343dad25669bfa277f4fbacd7ac6b0c4fed522580e040a0f33910160405180910390a2803411156104f7576000610469823461066d565b604051909150600090339083908381818185875af1925050503d80600081146104ae576040519150601f19603f3d011682016040523d82523d6000602084013e6104b3565b606091505b50509050806104f45760405162461bcd60e51b815260206004820152600d60248201526c1499599d5b990819985a5b1959609a1b60448201526064016101fb565b50505b5050565b6000546001600160a01b031633146105255760405162461bcd60e51b81526004016101fb906105e6565b6001600160a01b03811661057b5760405162461bcd60e51b815260206004820152601960248201527f496e76616c6964206e6577206f776e657220616464726573730000000000000060448201526064016101fb565b600080546001600160a01b0319166001600160a01b0392909216919091179055565b6000602082840312156105af57600080fd5b81356001600160a01b03811681146105c657600080fd5b9392505050565b6000602082840312156105df57600080fd5b5035919050565b60208082526021908201527f4f6e6c79206f776e65722063616e2063616c6c20746869732066756e6374696f6040820152603760f91b606082015260800190565b634e487b7160e01b600052601160045260246000fd5b808202811582820484141761065457610654610627565b92915050565b8082018082111561065457610654610627565b818103818111156106545761065461062756fea2646970667358221220f59d17f0e5cd7eda20a52dacf04e7d60c8060e816f9f931768c57bc76b72bbbb64736f6c63430008140033",
  "linkReferences": {},
  "deployedLinkReferences": {}
}